:020000040800F2
:10000000381100202D0200083502000837020008D0
:10001000390200083B0200083D0200080000000011
:100020000000000000000000000000003F02000887
:1000300041020008000000004302000845020008D9
:10004000470200084702000847020008470200086C
:10005000470200084702000847020008470200085C
:10006000490700086D070008AD07000847020008AF
:10007000470200084702000847020008470200083C
:10008000470200084702000847020008470200082C
:10009000470200084702000847020008470200081C
:1000A000470200084702000847020008470200080C
:1000B00047020008470200084702000847020008FC
:1000C00047020008470200084702000847020008EC
:1000D00047020008BD2D0008E92D0008912E0008F8
:1000E00047020008470200084702000847020008CC
:1000F00047020008470200084702000847020008BC
:100100004702000847020008A11B00084702000838
:10011000470200084702000847020008470200089B
:10012000470200084702000847020008470200088B
:10013000470200084702000847020008470200087B
:10014000470200084702000847020008470200086B
:10015000470200084702000847020008470200085B
:10016000470200084702000847020008470200084B
:10017000470200084702000847020008470200083B
:10018000470200084702000800F002F800F03EF8BD
:100190000AA090E8000C82448344AAF10107DA45E2
:1001A00001D100F033F8AFF2090EBAE80F0013F0F6
:1001B000010F18BFFB1A43F001031847C06100008C
:1001C000E0610000103A24BF78C878C1FAD852071D
:1001D00024BF30C830C144BF04680C6070470000C1
:1001E0000023002400250026103A28BF78C1FBD840
:1001F000520728BF30C148BF0B60704700207047CE
:100200001FB503F0FAFE1FBD10B510BD00F09CF93C
:100210001146FFF7F5FF03F08DF900F0BAF903B4CA
:10022000FFF7F2FF03BC02F0BFFF00000948804760
:1002300009480047FEE7FEE7FEE7FEE7FEE7FEE7C8
:10024000FEE7FEE7FEE7FEE704480549054A064BE0
:1002500070470000451B000889010008380B00208A
:1002600038110020380D0020380D002070470000A4
:100270000FB4044910B503AA029800F01FF910BC8E
:100280005DF814FB180000202DE9F0474FF0000A3C
:1002900089460446C0F820A02046E1688847002827
:1002A00076D0252806D0D4E901219047206A401C49
:1002B0002062F1E7E168204600258847C4F81CA0C9
:1002C00006460027C4F818A02A2E09D0304602F0AE
:1002D00064FF38B304EB8708303EC8F8186019E0B3
:1002E00059F8041B204604EB87029161E1688847B6
:1002F000012F064618D1E069002820DA25F02005F4
:100300001DE0D8F8180000EB800006EB4000303804
:10031000C8F818002046E1688847064602F03DFF0D
:100320000028EED1012F0AD02E2E08D12046E168F8
:1003300088477F1C0646022F45F02005C4DBA069D4
:10034000002803DA404245F00105A061E80701D02A
:1003500025F01005B6B1A6F14100192802D82036C3
:1003600045F400654A463146204625604D46FFF774
:1003700045FF58B1012806D0ED1D25F0070000F11A
:10038000080989E704E005F1040985E730468AE7B2
:10039000206ABDE8F08710B5431C02E010F8011B8D
:1003A00071B18107FAD14FF0013202C88C1A8C4327
:1003B00014EAC211F9D0C01A0A0603D0C01E10BD3B
:1003C000C01A10BD0A0401D0801E10BD0902FCD065
:1003D000401E10BD4FF000020429C0F0128010F042
:1003E000030C00F07F80CCF1040CBCF1020F18BFAD
:1003F00000F8012BA8BF20F8022BA1EB0C0100F0A4
:1004000071B85FEAC17C24BF00F8012B00F8012B12
:1004100048BF00F8012B704710B5044610F0030FD9
:1004200008BF11F0030F40F015804FF0013E121F7E
:10043000C0F20E8051F8043BA3EB0E0C2CEA030C27
:100440001CEACE1C08BF40F8043BF0D0A1F1040127
:1004500002F10402521E08DB11F8013B002B00F8E8
:10046000013BF7D11146FFF7B5FF204610BD70479D
:1004700070477047704710B500F05AF8006810BD1B
:1004800010B5044600F054F8046010BD01694A1C20
:1004900002610878704700B58FB0CDE901310021C5
:1004A000059105497944CDE9031011466846FFF7E7
:1004B000EBFE0FB000BD0000E5FFFFFF074B70B57E
:1004C0000D467B44FFF7E7FF0446284600F034F86A
:1004D00010B14FF0FF3070BD204670BD4F2D0000B1
:1004E0004FF0000200B5134694469646203922BFCD
:1004F000A0E80C50A0E80C50B1F12001BFF4F7AF18
:10050000090728BFA0E80C5048BF0CC05DF804EBF9
:10051000890028BF40F8042B08BF704748BF20F867
:10052000022B11F0804F18BF00F8012B704700001C
:1005300000487047D80A0020007B00F08000704718
:1005400000487047D80A00207546FFF7F9FFAE460D
:1005500005006946534620F00700854618B020B5CF
:10056000FFF772FEBDE820404FF000064FF0000795
:100570004FF000084FF0000B21F00701AC46ACE84B
:10058000C009ACE8C009ACE8C009ACE8C0098D46B8
:10059000704710B50446AFF300802046BDE8104018
:1005A000FFF73DBEFEB51BA000F070F8002510243B
:1005B0001DA08DE831004FF6E07633461F221E2144
:1005C0000A2001F04BFA21A08DE8310033461F22AA
:1005D00032210A2001F042FA182022A1CDE90010B0
:1005E000012433461F22029446210A2001F036FAE4
:1005F000202022A1CDE9001033461F22029464215D
:100600000A2001F02BFABDE8FE404FF4966002F09C
:10061000CDBD0000B2E2CAD4363AD6D0CEC4CFD4D3
:10062000CABEB2E2CAD4000031365831363AC8AB3D
:10063000B6AFB5E7D7D3BCBCCAF5D3D0CFDEB9AB24
:10064000CBBEBBB6D3ADC4FA000000003136583182
:10065000363A57656C636F6D65C8ABB6AFB5E7D713
:10066000D300000032345832343AC9EEDBDACAD053
:10067000D6D0CEC4B2E2CAD4000000003332583320
:10068000323AD7D6CCE5B2E2CAD400002DE9FE4317
:1006900080464FF6FF75284600F088FC164C1F2652
:1006A0000096002122881423084600F02DFD0096B4
:1006B00063882288A3F1140081B2002000F024FD99
:1006C0000E48012610270580CDF80080CDE901767F
:1006D0001F232A460221002000F046FC08A0CDE995
:1006E0000007029660881F23123881B22A46002034
:1006F00000F03AFCBDE8FE83BC0A00205800002050
:10070000687474703A2F2F7777772E6C63647769EB
:100710006B692E636F6D00002DE9F0479846DDE9A7
:10072000085491460E46074600F078FC23462A46B8
:100730004146484600F072FC33463A462146284678
:10074000BDE8F04700F06ABC10B5042000F054F892
:10075000012808D102F0AAFD03494860BDE8104015
:10076000042000F043B810BD2400002010B508207C
:1007700000F042F8012812D10948D0F80C0248B91B
:100780000848D0F8A41281F00101C0F8A41206496B
:1007900001200870BDE81040082000F027B810BD07
:1007A00000004242008042421C00002010B5102090
:1007B00000F022F8012812D10948D0F8100248B9F7
:1007C0000848D0F8A81281F00101C0F8A812064923
:1007D00001204870BDE81040102000F007B810BD9F
:1007E00000004242008042421C0000200149086093
:1007F00070470000143C0140034A01460020126883
:100800000A4200D001207047143C014030B51A4A1A
:100810008379016853B313688B431360111D0B6810
:100820000468A3430B60017911440B6804682343F7
:100830000B60114B083319680468A14319601C1D33
:1008400021680568A94321604179102905D0114428
:100850000A68006802430A6030BD196802681143E3
:100860001960216800680143216030BD007910449F
:1008700002688A43026030BD003C0140FEB524A0FE
:10088000FFF704FF0C2527A0CDE9000500244FF653
:10089000E0773B461F221E2102940A2001F0DEF879
:1008A00001262BA08DE861003B461F222D210A2046
:1008B00001F0D4F831A0CDE900053B461F223C21D0
:1008C00002940A2001F0CAF8102534A0CDE90005F1
:1008D0003B461F22502102940A2001F0BFF83AA0A3
:1008E0008DE861003B461F2264210A2001F0B6F822
:1008F00040A0CDE900053B461F22782102940A2042
:1009000001F0ACF8BDE8FE404FF4966002F04EBC3A
:10091000B2E2CAD4353AD3A2CEC4CFD4CABEB2E270
:10092000CAD40000365831323A6162636465666742
:1009300068696A6B6C6D6E6F7071727374757677BF
:1009400078797A303132333435363738390000002F
:10095000365831323A4142434445464748494A4B6A
:100960004C4D4E4F505152535455565758595A307A
:1009700031323334353637383900000036583132A9
:100980003A7E21402324255E262A28295F2B7B7D61
:100990003A3C3E3F2F7C2D2B2E000000385831363C
:1009A0003A6162636465666768696A6B6C6D6E6FF5
:1009B000707172737475767778797A303132333436
:1009C0003536373839000000385831363A4142431D
:1009D0004445464748494A4B4C4D4E4F505152535F
:1009E0005455565758595A303132333435363738D2
:1009F00039000000385831363A7E21402324255EE4
:100A0000262A28295F2B7B7D3A3C3E3F2F7C2D2BCD
:100A10002E0000002DE9FF4F87B00027DDE91423E9
:100A2000BDF82840B846A14208D90D4621460446E3
:100A3000BDF82400ADF82850ADF82440BDF828508A
:100A40009CB2A54207D9ADF828401446BDF8242031
:100A50002B46ADF82440BDF82840A14208D90D46E8
:100A600021460446BDF82400ADF82850ADF82440D6
:100A70001FFA83F90E46494521D1BDF82410ADF87F
:100A80000400814201D2084602E001D9ADF8041009
:100A900091B2814201D2084605E0BDF8042091429E
:100AA00001D9ADF804103C493346BDF8042009884B
:100AB0000091194600F028FB0BB0BDE8F08FBDF89F
:100AC00024300546581BBDF828100690881B92B2AA
:100AD0000590D01A0290A9EB0100A2EB050AA9EB40
:100AE000060B0490494501D1039102E0491E88B2EA
:100AF000039034461FE098FBFBF10598294497FBCF
:100B0000F0F01FFA81FCADF804C02844069980B2C9
:100B10000F44D044604503D901466046ADF8041047
:100B20001D492346BDF8042009880091194600F0AC
:100B3000EBFA641CA4B203988442DCD9BDF8280007
:100B4000271A02984743A61B06FB0AF621E00498E1
:100B5000BDF8241097FBF0F0084496FBFBF1294404
:100B60001FFA81FC029980B2ADF804C00F445644CC
:100B7000604503D901466046ADF804100649234696
:100B8000BDF8042009880091194600F0BDFA641CE4
:100B9000A4B24C45DBD98FE758000020F0B5002205
:100BA00001274FF0030C0B6807FA02F52B40AB420C
:100BB0002CD1066853000CFA03F4A64306600E79A4
:100BC000D0F800E09E4046EA0E0606600E79012E3F
:100BD00001D0022E12D18668A64386604E79D0F8E5
:100BE00008E09E4046EA0E0686604668AE434660D0
:100BF00045688E799640B6B235434560C568A543D1
:100C0000C560CC799C40C3681C43C460521C102A48
:100C1000C9D3F0BD4B07DB0E9A40C90810B500EBF5
:100C20008100016A0F249C40A1430162016A1143C3
:100C3000016210BD0246002012690A4200D0012064
:100C400070470183704700002DE9FF4F83B00546D0
:100C500082463E2089464FF000084FF0800B0190FD
:100C60003049109A08EB081011F8103012789342AE
:100C70003CD101EB400000904178109840788142CF
:100C800034D109F10F0083B205F10F0082B2494659
:100C9000284600F099FB0026009800248719119837
:100CA00090B1214905980880B9782BFA04F00142E7
:100CB00003D04946284600F0FDF96D1CADB2A5EB06
:100CC0000A00102827D009E0B9782BFA04F0014275
:100CD00001D0059800E0069800F0F8FC641CE4B22E
:100CE000082CDCD3761CF6B2202ED5D308F10100F7
:100CF00001991FFA80F88845B2D30C494888401EF4
:100D000083B2088807B0401EBDE8F04F82B20021D0
:100D1000084600F059BB09F1010055461FFA80F959
:100D2000E0E70000684A000858000020BC0A0020E4
:100D30002DE9FF4F83B00546824607200190002031
:100D4000894680464FF0800B00EB800101EB481094
:100D50002F49109A11F81030127893423CD101EBD0
:100D600040000090417810984078814234D109F1D8
:100D7000170083B205F1170082B24946284600F0F9
:100D800023FB0026009800248719119890B121496F
:100D900005980880B9782BFA04F0014203D049463F
:100DA000284600F087F96D1CADB2A5EB0A001828A3
:100DB00027D009E0B9782BFA04F0014201D0059858
:100DC00000E0069800F082FC641CE4B2082CDCD33E
:100DD000761CF6B2482ED5D308F1010080B20199F5
:100DE00080468842B0D30C494888401E83B20888A8
:100DF00007B0401EBDE8F04F82B20021084600F067
:100E0000E3BA09F1010055461FFA80F9E0E7000056
:100E1000A452000858000020BC0A00202DE9FF4F12
:100E200083B005468246042089464FF000084FF003
:100E3000800B01903049109A08EB881011F810309F
:100E4000127893423CD101EB400000904178109819
:100E50004078814234D109F11F0083B205F11F00AF
:100E600082B24946284600F0AFFA002600980024D6
:100E70008719119890B1214905980880B9782BFA03
:100E800004F0014203D04946284600F013F96D1CD6
:100E9000ADB2A5EB0A00202827D009E0B9782BFADB
:100EA00004F0014201D0059800E0069800F00EFC25
:100EB000641CE4B2082CDCD3761CF6B2802ED5D3A9
:100EC00008F1010001991FFA80F88845B2D30C4956
:100ED0004888401E83B2088807B0401EBDE8F04F26
:100EE00082B20021084600F06FBA09F101005546B0
:100EF0001FFA80F9E0E70000AA540008580000201B
:100F0000BC0A002010B5144600F05AFA2046BDE88D
:100F1000104000F0DBBB000070B5154601F1270260
:100F200093B200F1270292B200F04EFA00244FF47F
:100F3000C86605EB440115F81400497840EA012021
:100F400000F0C4FB641CB442F3DB0648418800880F
:100F5000491E401EBDE870408BB282B20021084697
:100F600000F032BABC0A00202DE9FE431F46DDE93D
:100F70000A469046894620460C9DFFF70CFA0A491E
:100F800080B240420988CDE9004601EBC00000EB89
:100F9000D070C0F34F003B4642464946029500F0F0
:100FA0005DFDBDE8FE830000BC0A00202DE9F0478E
:100FB000134E814600217088401E83B23088401E47
:100FC00082B2084600F000FA0E4F0020C7F89C02DB
:100FD0004FF00108C7F8A482054609E0002403E0A9
:100FE000484600F073FB641C3088A042F8D86D1CA2
:100FF0007088A842F2D8C7F89C82BDE8F08700004C
:10100000BC0A00200000424238B5034C24880094FA
:1010100000F07AF838BD0000580000202DE9FE4F9E
:101020000026A2EB000882465F1A701E35468946EC
:10103000B8F1000F02DD4FF0010102E003D14FF0E3
:101040000001019102E0C8F100080190002F02DDCB
:101050004FF0010002E003D14FF00000009002E0E9
:10106000C7F1000700904046B84501DD044600E0A6
:101070003C46601C4FF0000B029015E01FFA89F10E
:101080001FFA8AF000F016F846443D44A64202DDFD
:101090000199361B8A44A54202DD00992D1B894423
:1010A0000BF101001FFA80FB02998B45E6DDBDE8DC
:1010B000FE8F000010B500F083F903480088BDE8FA
:1010C000104000F003BB0000580000202DE9F04163
:1010D0001C4615460E4607460B46FFF79FFF3A464D
:1010E000234631461046FFF799FF23462A46194604
:1010F0003846FFF793FF2A4623463146BDE8F041C4
:101100001046FFF78BBF00002DE9F041141A641C54
:10111000A6B25C1A641CA7B2DDF8188000F054F97E
:1011200000250AE0002404E0404600F0CFFA641CE9
:10113000A4B2B442F8D36D1CADB2BD42F2D306489E
:1011400041880088491EBDE8F041401E8BB282B242
:101150000021084600F038B9BC0A00201CB5012166
:10116000102000F04BFB4FF49C50009001208DF8B4
:10117000040003218DF8051000218DF806108DF86C
:10118000070069460148FFF709FD1CBD0010024039
:1011900010B502F0D3FAFFF7E1FF00F0FDF8F02000
:1011A00000F04CFAC32000F039FAF02000F046FAC3
:1011B000962000F033FA362000F040FA682000F064
:1011C0002DFA3A2000F03AFA052000F027FAB02074
:1011D00000F034FA802000F021FAB62000F02EFA58
:1011E000002000F01BFA022000F018FAB52000F0F1
:1011F00025FA022000F012FA032000F00FFA002076
:1012000000F00CFA042000F009FAB12000F016FA00
:10121000802000F003FA102000F000FAB42000F063
:101220000DFA002000F0FAF9B72000F007FAC62006
:1012300000F0F4F9C52000F001FA242000F0EEF9E6
:10124000E42000F0FBF9312000F0E8F9E82000F09C
:10125000F5F9402000F0E2F98A2000F0DFF90020E3
:1012600000F0DCF9002000F0D9F9292000F0D6F9CF
:10127000192000F0D3F9A52000F0D0F9332000F0B8
:10128000CDF9C22000F0DAF9A72000F0D7F9E0206C
:1012900000F0D4F9F02000F0C1F9092000F0BEF907
:1012A000132000F0BBF9122000F0B8F9122000F072
:1012B000B5F92B2000F0B2F93C2000F0AFF9442042
:1012C00000F0ACF94B2000F0A9F91B2000F0A6F9C2
:1012D000182000F0A3F9172000F0A0F91D2000F05D
:1012E0009DF9212000F09AF9E12000F0A7F9F02003
:1012F00000F094F9092000F091F9132000F08EF924
:101300000C2000F08BF90D2000F088F9272000F068
:1013100085F93B2000F082F9442000F07FF94D2050
:1013200000F07CF90B2000F079F9172000F076F935
:10133000172000F073F91D2000F070F9212000F053
:101340006DF9362000F07AF9EC2000F067F9F02012
:1013500000F074F9C32000F061F9F02000F06EF99C
:10136000692000F05BF9132000F068F9112000F00B
:1013700065F9292000F062F9002000F07FF90549A5
:101380000120C1F8B002BDE810404FF6FF70FFF732
:101390000DBE00000000424210B5084C0020C4F809
:1013A000A002642004F5287401F000FF01202060F1
:1013B000BDE81040322001F0F9BE000000004242BA
:1013C0000B460246AFF300802DE9F041DFF8508074
:1013D00007461C4615460E4698F80A0000F02EF9FE
:1013E000380A00F01BF9F8B200F018F9280A00F0EA
:1013F00015F9E8B200F012F998F80C0000F01EF9A7
:10140000300A00F00BF9F0B200F008F9200A00F001
:1014100005F9E0B200F002F9BDE8F04100F01EB9B4
:10142000BC0A00202DE9FF4F81B00EAE824696E83F
:101430003100203800F0FF080298DFF8E0B02044C7
:10144000401E83B20AEB5400BBF80010401E00910E
:1014500082B250460299FFF7B7FF4FF000067DBBFE
:101460002F4908EB480001EB800901F2744000EBC2
:10147000081817E00C2C03D018F8065000270CE0D1
:1014800019F80650FAE7E80701D0039800E004983D
:1014900000F01CF96D087F1CFFB2B7EB540FF2D3BC
:1014A000761CF6B2A642E5D327E00C2C09D01D48E5
:1014B00000EB08100025875D029800EB060915E097
:1014C00019E0174808EB480100EB8100F2E70398A8
:1014D000ABF80000F80706D00AEB05001FFA89F107
:1014E00080B2FFF7E7FD7F086D1CEDB2B5EB540F3E
:1014F000EDD3761CF6B2A642D7D30098ABF8000025
:1015000009484188008805B0491EBDE8F04F401EDB
:101510008BB282B200210846FFF756BF5800002068
:101520000440000878440008BC0A00202DE9FF4F61
:1015300083B00027DDF840801D4681463C46BA4610
:101540004FEA5806DFF864B02AE0281B401EC1B2FB
:101550000A2002F0EBF80599B1FBF0F00A21B0FB8C
:10156000F1F201FB120027B9691E8C4201DA40B189
:1015700001273030C0B28DE8010506FB049080B22F
:1015800005E0202206FB04908DE8040580B208499E
:10159000BBF800300A880499FFF744FF641CE4B2EA
:1015A000AC42D2D307B0BDE8F08F00005A00002053
:1015B000580000202DE9FE4F1C4616460F460546F2
:1015C000DFF84C90DFF84CA0DFF84CB0DDF830804D
:1015D00017E0B9F80020521EAA4217DBB9F8021032
:1015E000491EB94212DB8DE84101BAF80030BBF860
:1015F000002039462846FFF715FF05EB560085B257
:10160000641C2078A0F120015E29E2D9BDE8FE8F9C
:10161000BC0A00205A0000205800002070B5064C7B
:101620000021C4F89C120125C4F8A45204F52774C3
:1016300000F088F9256070BD0000424210B5064CEC
:101640000021C4F89C12C4F8A41204F5277400F019
:1016500079F90120206010BD000042420148007A63
:10166000FFF7ECBFBC0A002010B50C46FFF7E6FF01
:10167000E0B2BDE81040FFF7D1BF000012492A22B6
:101680004FF4A0734A812B228A812C220A814FF4C5
:10169000F07258B101280DD002280FD0032811D1C3
:1016A0000A804B80E8213620FFF7DEBF0B804A809E
:1016B0004821F8E70A804B802821F4E70B804A8014
:1016C0008821F0E770470000BC0A002070B5094C83
:1016D00005460020C4F89C020126C4F8A462280A2A
:1016E00004F5277400F02EF9E8B200F02BF926601B
:1016F00070BD00000000424230B50F23C27801786F
:101700000125FAB1144A126801F1E02102F4E06205
:10171000C2F5E062C2F30722C2F10404D34042786A
:10172000A24084781C401443220181F800240078F0
:1017300000F01F018D404009800000F1E020C0F85A
:10174000005130BD01F01F0085404809800000F1C4
:10175000E020C0F8805130BD0CED00E002490843A4
:1017600002490860704700000000FA050CED00E037
:10177000FEB51BA0FEF78AFF1E211E4A0846FFF792
:10178000CBFB012510241CA08DE831004FF6E0763C
:1017900033461F224B212A2000F060F9154A1E21F2
:1017A0005A20FFF7B9FB14A08DE8310033461F2201
:1017B0004B21662000F052F90E4A1E219620FFF7B9
:1017C000ABFB0DA08DE8310033461F224B21A22038
:1017D00000F044F9BDE8FE404FF4966001F0E6BC2D
:1017E000B2E2CAD4373ACDBCC6ACCFD4CABEB2E29C
:1017F000CAD40000B456000851510000044A002920
:10180000116801D0014300E081431160704700007E
:1018100030380240044A0029116801D0014300E039
:1018200081431160704700004438024070B5204B7E
:101830001968204C11F00C0104D06610042903D063
:10184000082903D004601BE0066019E0184A121F43
:101850001168C1F38055116801F03F0115B1B6FB65
:10186000F1F101E0B4FBF1F114681268C4F38814DB
:101870006143C2F30142521C5200B1FBF2F101601C
:1018800019680F2202EA11110B4A545C0168E14009
:1018900041601C68072505EA9424145D21FA04F4CC
:1018A00084601B6805EA5333D25CD140C16070BDCF
:1018B000083802400024F400880000202DE9F0439D
:1018C000194887B003AE0FC886E80F0000244FF018
:1018D000010810274FF6E0794FF47A752046FFF79C
:1018E000CDFE12A0FEF7D2FE56F824104B468DE82E
:1018F00082011F221E21142000F0B0F8104A32216C
:101900001E20FFF709FB284601F050FC284601F095
:101910004DFC641CE4B2042CE0D30020FFF7AEFEC3
:1019200007B0BDE8F083000034630008B2E2CAD417
:10193000383AC6C1C4BBD0FDD7AAB2E2CAD40000AF
:10194000B456000830B5082100230A4A01240506D0
:1019500002D5C2F8A84201E0C2F8A832C2F8AC32FF
:10196000C2F8AC424006000E491E11F0FF01EED154
:1019700030BD00000000424210B58A0721F0030488
:101980000849120F21440F23D1F8084893409C4383
:10199000C1F80848D1F8083890400343C1F8083826
:1019A00010BD0000003001400CB500222749009214
:1019B0000192086840F4803008604FF4A043086842
:1019C00000F4003001900098401C0090019810B97C
:1019D00000989842F3D10868800334D50120019023
:1019E0001A484030026842F080520260184802688B
:1019F00042F4404202601548083002680260026802
:101A000042F400420260026842F4A0520260031FE6
:101A1000104A1A600A6842F080720A600A689201ED
:101A2000FCD50D4940F205720A60016821F00301FE
:101A30000160016841F0020101600168C1F38101A8
:101A40000229FAD10CBD01920CBD00000038024001
:101A50000070004008544007003C02402DE9FF4F51
:101A600083B08846DDE91054064682464FF00009EF
:101A7000DFF8CCB0129F1DE0B9F1000F20D0BBF809
:101A80000010091BB14218DBBBF80200011B4145E5
:101A900013DB4FF00009202C46D0CDE90057DDE9DB
:101AA0000523182C4146304647D0FFF7CDF83019B2
:101AB00086B2AD1C28780028DED107B0BDE8F08FD3
:101AC000BBF80020A2EB5402B242F6DBBBF80210D6
:101AD0000A1B41464245F0DB802802D94FF001093C
:101AE000E8E70D280DD0102C12D910218DE88300C5
:101AF000DDE9052341463046FFF794FC0836B6B2CF
:101B000010E008EB04001FFA80F856466D1C09E04F
:101B10008DE89100DDE905233046FFF783FC06EBF5
:101B2000540086B26D1CC5E7CDE90057DDE90523F9
:101B300041463046FFF772F9B9E7FFF7F9F8B6E723
:101B4000BC0A0020124810B5016841F47001016020
:101B50001048016841F0010101600E4A002108327D
:101B6000116002680C4B1A400260031D0B4A1A6098
:101B7000026822F48022026006480C300160FFF700
:101B800013FF03494FF000608039086010BD00006A
:101B900088ED00E000380240FFFFF6FE1030002420
:101BA00010B50B4C0221204600F01BF801280ED185
:101BB000204600F014F8074908600021204600F094
:101BC0001CF82046BDE81040022100F005B810BD09
:101BD000000C004020000020C94301827047406B88
:101BE000704702460020138A92890B4202EA0102E2
:101BF00002D0002A00D001207047416270470000E7
:101C00002DE9FF4F81B00D46DDE9108746490646B4
:101C10004FF47840DDF838B0DDF8489008809246FF
:101C2000012442A31022A02128200094FFF7C2FC27
:101C30003FA31022A02178200094FFF7BBFC3DA316
:101C40001022B42128200094FFF7B4FC3AA31022FC
:101C5000B42178200094FFF7ADFC38A31022C821EE
:101C600028200094FFF7A6FC35A31022C821782075
:101C70000094FFF79FFC33A31022DC21282000945E
:101C8000FFF798FC30A31022DC2178200094FFF7A6
:101C900091FC2EA31022F02128200094FFF78AFC4B
:101CA000102404233246A02140200094FFF73EFC7C
:101CB00004232A46A02190200094FFF737FC042338
:101CC0005246B42140200094FFF730FC04230094D6
:101CD000B4219020049AFFF729FC04235A46C82116
:101CE00040200094FFF722FC00940423C821902098
:101CF0000F9AFFF71BFC04234246DC21402000948E
:101D0000FFF714FC04233A46DC2190200094FFF7EF
:101D10000DFC10480094032301884A466020FFF719
:101D200005FC05B0BDE8F08F5800002078313A007E
:101D300079313A0078323A0079323A0078333A0011
:101D400079333A0078343A0079343A006661632096
:101D500069733A00BC0A00202DE9F04FF74E1F20AE
:101D60002DED0C8B89B04FF6FF770024254630808F
:101D7000F34807803846FFF719F94FF47848A6F87A
:101D800000803846FFF712F9002737800126EDA3BF
:101D9000102228210A200096FFF70CFCF1A3102244
:101DA00038210A200096FFF705FCF7A310224821EE
:101DB0000A200096FFF7FEFBFBA3102258210A2001
:101DC0000096FFF7F7FB14214246084600F0F0FAB0
:101DD000FC4807759FEDFC0A80ED060A9FEDFBCBE2
:101DE0009FEDFCDB9FEDFDBBB146FE4E80464FF004
:101DF000900BA0F1040AD8F8041047460120884748
:101E0000387DB9EB901F45D120F04000387505A80A
:101E10003A8A20F8242000EB8400641C0025798A8B
:101E2000E4B2B8464180012C06D0022C11D0032C1C
:101E30001ED0042C2ED13CE014214FF6FF72084630
:101E400000F0B6FA30884FF47842143880B214218A
:101E50001EE030884FF6FF72143880B2142100F073
:101E6000A7FA70884FF47842143881B214200FE03A
:101E700070884FF6FF72143881B2142000F098FA7F
:101E800070884FF47842143881B23088143880B2A8
:101E900000F08EFA0A2001F089F96D1CADB2B5F59B
:101EA0007A7FA8D900F0C2FA09B0BDEC0C8BBDE86E
:101EB000F08FBDF81400BDF81810411A00D5494242
:101EC000BDF81600BDF81A20801A00D540424943DB
:101ED0004043084401F0D1FD41EC100B01F0D4F86F
:101EE00051EC100B01F09CFD84B2BDF81C00BDF854
:101EF0002010411A00D54942BDF81E00BDF822202D
:101F0000801A00D5404249434043084401F0B5FDE2
:101F100041EC100B01F0B8F851EC100B01F080FD12
:101F200000EE104A87B2F8EE400A00EE107AB8EEE2
:101F3000401A80EE810A10EE100A01F0EDFFB0EEBB
:101F40004C9AF0EE6C9A41EC180B53EC192B01F003
:101F5000A7FD5BD3B0EE4DAAF0EE6DAA53EC1A2BA1
:101F600051EC180B01F0D6FE50D3ECB3E7B3BDF83B
:101F70001400BDF81C10411A00D54942BDF81600E6
:101F8000BDF81E20801A00D5404249434043084412
:101F900001F073FD41EC100B01F076F851EC100BE1
:101FA00001F03EFD84B2BDF81810BDF82000091AFA
:101FB00000D54942BDF81A00BDF82220801A00D58C
:101FC000404249434043084401F057FD41EC100BA7
:101FD00001F05AF851EC100B01F022FD00EE104A0E
:101FE00080B2F8EE400A00E010E000EE100AB8EE11
:101FF000401A80EE810A10EE100A01F08DFF41ECCC
:10200000180B53EC192B01F04BFD31D270880024D2
:10201000143881B230884FF6FF72143880B200F065
:10202000C7F914214FF47842084600F0C1F953EC87
:102030001B2B51EC180B01F06FFD01F0F1FC80B28D
:10204000BDF82220BDF82030BDF81E10CDE90320D8
:10205000CDE90113BDF81C000090BDF81A30BDF8A1
:102060001820BDF81610BDF81400FFF7C9FDC2E630
:1020700053EC1A2B51EC180B01F04CFEC6D3BDF8F3
:102080001800BDF81C10411A00D54942BDF81A00CD
:10209000BDF81E20801A00D5404249434043084401
:1020A00001F0EBFC41EC100B00F0EEFF51EC100BDB
:1020B00001F0B6FC84B2BDF81400BDF82010411A3E
:1020C00000D54942BDF81600BDF82220801A00D57F
:1020D000404249434043084401F0CFFC41EC100B1F
:1020E00000F0D2FF51EC100B01F09AFC00EE104A08
:1020F00080B2F8EE400A00EE100AB8EE401A80EE08
:10210000810A10EE100A01F007FF41EC180B53ECA6
:10211000192B01F0C5FCB1D353EC1A2B51EC180B61
:1021200001F0F8FDAAD3BDF81800BDF81410421A4A
:1021300000EE102A3288B8EEC01A55E05800002090
:102140005A000020506C65617365207573652074BA
:102150006865207374796C757320636C69636B2098
:102160007468650063726F7373206F6E20746865A6
:102170002073637265656E2E5468652063726F7399
:10218000732077696C6C0000616C77617973206DE6
:102190006F766520756E74696C2074686520736352
:1021A0007265656E2000000061646A7573746D6508
:1021B0006E7420697320636F6D706C657465642E36
:1021C00000000000600000200000000066666666F7
:1021D0006666EE3FCDCCCCCCCCCCF03F000000000E
:1021E00000005940BC0A0020A2F1280300EE103A7A
:1021F0000844F6EE001AB8EEC00A4746C0EE010ADF
:1022000000EE100AB8EE401A00EE102AB8EE400AAE
:10221000C8ED060A00EEC10AFDEEE00A20EE210A32
:10222000BDEEC00A10EE100AA8F82000BDF81E008E
:10223000BDF81630C11A00EE101A71881844B8EEB5
:10224000C01AA1F1280400EE104AB8EEC02A82EEAE
:10225000010A01EE100AB8EE412A01EE101AB8EE9A
:10226000411A87ED070A00EE421A21EE211ABDEE4F
:10227000C11A11EE100A788410EE900A002800DAD4
:102280004042022808DCBDEEC00A10EE100A002809
:1022900000DA404202282BDD143A143990B20024AF
:1022A00089B24FF6FF7200F083F814214FF47842A0
:1022B000084600F07DF81FA310221A212820CDF82F
:1022C0000090FFF777F997F8240048B1002087F8CD
:1022D000240038B18AF800B0D0218AF801108AE5CC
:1022E0000120F4E7D0218AF800108AF801B082E5D5
:1022F00015491F204FF6FF7508802846FEF756FE49
:102300004C4612A310226E212320CDF80090FFF737
:1023100051F94FF47A7000F049FF00F0E3F911A38E
:102320001022822123200094FFF744F92846FEF76B
:102330003DFEB9E55450204E6565642072656164C8
:102340006A7573742100000058000020546F756393
:10235000682053637265656E2041646A75737420EA
:102360004F4B2100546F756368205361766520419F
:10237000646A64617461204F4B21000070B50646A9
:102380000A480C4602803046FEF794FE751CA8B23F
:102390002146FEF78FFE641CA1B23046FEF78AFE8E
:1023A000A1B2A8B2BDE87040FEF784BE580000207C
:1023B0002DE9F843DFF8709004460D30A9F80020AD
:1023C00082B2A4F10C000D4680B20B46FEF726FE49
:1023D00005F10D0083B2193881B222461046FEF78E
:1023E0001DFE6E1C04F10108B1B21FFA88F0FEF761
:1023F00061FEB1B2661EB0B2FEF75CFE6F1EB9B2EE
:102400001FFA88F0FEF756FEB9B2B0B2FEF752FEE0
:10241000002000900623B9F800202946204600F04D
:1024200003FFBDE8F88300005800002070B50024C9
:102430002DED028B82B00E2128480094FDF7CAFFD3
:102440000E2226494FF4805001F07CFA234E707B17
:1024500000900A2804D0002002B0BDEC028B70BDB1
:1024600004221E4968460094FDF7D6FF9DED000A40
:102470009FED1B8A1B4DB8EEC00A0422311D684631
:10248000C0EE080AC5ED060A0094FDF7C5FF9DEDF4
:10249000000A12490222B8EEC00A083105F12000F4
:1024A000C0EE080AC5ED070A2C84FDF7B5FF0B49FD
:1024B00002220A3105F122000094FDF7ADFF307BC6
:1024C0009023291F85F82400D02210B10B704A7088
:1024D00001E00A704B700120BEE70000CA0A00202C
:1024E00020BCBE4C600000207CB501210820FFF715
:1024F00085F90220009000208DF804008DF8060078
:1025000003208DF80500134D01248DF8074069461E
:102510002846FEF743FB00948DF8044069462846A0
:10252000FEF73CFB0C49881E00F08AF801F030FAF7
:10253000FFF77CFF08B100207CBD4FF6FF70FEF76F
:1025400035FDFFF709FC00F0CDF8FFF76FFF012024
:102550007CBD0000000C0240720000202DE9F04715
:1025600000251D4E2C462F46C6F88C52C6F89452B4
:10257000DFF868A0CAF8805206F5237600F05CF90F
:10258000062000F02DFE3760012000F029FE4FF0FC
:102590000108C6F80080404600F022FE3760B946C8
:1025A00047464FF6FF78A6F5237608EA4404C6F8B6
:1025B0008C92012000F014FEC6F88C72D6F810023E
:1025C00008B1641CA4B26D1CEDB2102DEDD320092E
:1025D000CAF88072BDE8F087008040420080414226
:1025E000FEB5064600246D463046FFF7B7FF25F8D6
:1025F0001400641CA4B2052CF6D300214C1CA0B21C
:102600000BE035F8113035F81020934203D925F846
:10261000112025F81030401C80B20528F1D3A1B25A
:102620000429EBD30021012035F81020401C11446F
:1026300080B289B20428F7D30320B1FBF0F0FEBDCD
:102640002DE9F041074F06460D463878FFF7C8FFE1
:1026500004467878FFF7C4FF348028800120BDE865
:10266000F08100005C00002070B586B00C46054685
:10267000694604A8FFF7E4FF00282FD001A903A8AA
:10268000FFF7DEFF002829D0BDF80C30BDF8102080
:10269000934203D803F13200824205D39A421FD8F5
:1026A00002F1320083421BD2BDF80410BDF80000D5
:1026B000814203D801F13206B04204D388420FD8D8
:1026C000323081420CD2D01840082880BDF800007A
:1026D000BDF80410084440082080012006B070BDF9
:1026E0000020FBE730B50E212DED028B81B0214893
:1026F000FDF770FE204D9FED218A042295ED060A1C
:1027000069461C4820EE080ABDEEC00A8DED000A9D
:10271000FDF782FE95ED070A164C042220EE080A0A
:102720006946201DBDEEC00A8DED000AFDF774FE5E
:10273000022205F1200104F10800FDF76DFE0222DE
:1027400005F1220104F10A00FDF766FE95F8240068
:1027500020730A2060734FF48054204601F08EF8F5
:102760000E220449204601F0ADF801B0BDEC028B09
:1027700030BD0000CA0A00206000002020BCBE4C12
:102780002B4910B5D1F804122A4C31B1207D010635
:1027900042D520F08000207545E00200254800F178
:1027A000120100F1100002D0FFF75EFF2AE0FFF7F0
:1027B0005BFF38B3B4F9200094ED061A00EE100A5E
:1027C000208A00EE900AB8EEC00AF8EE600A01EE28
:1027D000200ABCEEC00A10EE100A2082B4F92200D2
:1027E00094ED071A00EE100A608A00EE900AB8EE27
:1027F000C00AF8EE600A01EE200ABCEEC00A10EE34
:10280000100A6082207D00060DD4C0202075208A29
:10281000A081608AE08106E00020A081E0814FF67F
:10282000FF7020826082207D00F0800010BD0000DB
:1028300000804142600000202DE9F04100240D4E4F
:10284000054627464FF00108280602D5C6F89482AF
:1028500001E0C6F894726806050EC6F88C72012075
:1028600000F0BEFCC6F88C82641CE4B2082CEBD3EA
:10287000BDE8F081008040422DE9F843002429A002
:10288000FDF704FF2D4E4FF6FF77009770883288D2
:10289000143883B214210020FEF736FC284DA046E0
:1028A000CDF8008004EBC400718800EB041000EB4D
:1028B000510132881E2300EB520035F814205038A5
:1028C000323900F0B1FC641CE4B2052CE8D340F2CC
:1028D000DC58404600F06AFC009770883288143853
:1028E00083B214210020FEF70FFC0024012700977B
:1028F00004EBC400718800EB041000EB5101328836
:102900001E2300EB520035F814205038323900F005
:102910008BFC641CE4B2052CE9D34046BDE8F843C7
:1029200000F044BCB2E2CAD4333A475549BBADD4F7
:10293000B2CCEEB3E4B2E2CAD4000000BC0A00207C
:10294000000000202DE9FE434FF6FF702E4C009052
:102950000021638822880846FEF7D6FB10262BA0AC
:10296000CDE9000601254FF6E07843461F221E21DF
:1029700002951420FFF772F84FF44879484600F0AA
:1029800015FC4FF478470097002163882288084699
:10299000FEF7BAFB1FA0CDE9000643461F221E2109
:1029A00002951420FFF75AF8484600F0FFFB4FF459
:1029B000FC6000900021638822880846FEF7A4FB93
:1029C00016A0CDE9000643461F221E2102951420C1
:1029D000FFF744F8484600F0E9FB1F200090002173
:1029E000638822880846FEF78FFB0EA0CDE900061B
:1029F00043463A461E2102951420FFF72FF8484619
:102A0000BDE8FE4300F0D2BBBC0A0020424C20547B
:102A1000657374005245442000000000475245454C
:102A20004E200000424C5545200000002DE9F8439F
:102A300000242EA0FDF72AFE324F4FF6FF78CDF886
:102A4000008078883A88143883B214210020FEF779
:102A50005BFB2D4D2D4E35F8140030807988C4EB8A
:102A6000041000EB5101A1F1140293B23A885039DD
:102A700000EB5200A0F11402503892B289B280B239
:102A8000FEF724FB641CE4B2052CE4D340F2DC59CD
:102A9000484600F08BFBCDF8008078883A881438DF
:102AA00083B214210020FEF72FFB002435F8140018
:102AB00030807988C4EB041000EB5101A1F11402BD
:102AC00093B23A88503900EB5200A0F1140250380A
:102AD00092B289B280B2FEF797FA641CE4B2052C78
:102AE000E4D34846BDE8F84300F060BBB2E2CAD484
:102AF000323A475549BED8D0CECCEEB3E4B2E2CAA2
:102B0000D4000000BC0A0020000000205800002073
:102B10002DE9FC47002437A0FDF7B8FD3C4F4FF6E8
:102B2000FF78CDF8008078883A88143883B2142171
:102B30000020FEF7E9FA374D374E04EB840335F8F1
:102B4000140030807988C4EB041000EB5102A2F12C
:102B5000140081B23888493A400800EB8300A0F1A4
:102B6000150C1FFA8CF3CDE9003193B2A0F13302BA
:102B7000503892B280B2FDF7CFFD641CE4B2052C50
:102B8000DBD340F2DC59484600F010FBCDF8008062
:102B900078883A88143883B214210020FEF7B4FAFA
:102BA000002404EB840335F8140030807988C4EBEA
:102BB000041000EB5102A2F1140081B23888493AA6
:102BC000400800EB8300A0F115039BB2CDE9003172
:102BD00093B2A0F13302503892B280B2FDF71AFFDF
:102BE000641CE4B2052CDCD34846BDE8FC4700F089
:102BF000DDBA0000B2E2CAD4343A475549205472D3
:102C000069616E676C65CCEEB3E4B2E2CAD40000D1
:102C1000BC0A0020000000205800002008B5002455
:102C20002546FFF761FC00F01DFC00F061FC56A09A
:102C3000FDF72CFDDFF870914FF0010ACDF800A0F0
:102C4000B9F800004F46183880B258A3102200216E
:102C5000FEF7B0FC564E4FF47840122330800090BF
:102C60003888A0F11E018AB2343880B20221FEF702
:102C70004BFADFF84081012000F08EFB8346D8F844
:102C800004100020884798F81400000654D5B8F8BE
:102C90001000B9F800304F4698424DD2B8F81210E3
:102CA0007A88914248D2A3F1180290421BDD102984
:102CB00019D235A0FDF7EAFCCDF800A038883BA377
:102CC000183880B210220021FEF774FC3580009580
:102CD00038881223A0F11E018AB2343880B2022152
:102CE000FEF712FA28E0A3F13C02904221DD1E32E9
:102CF00090421EDA14291CD20525B4FBF5F005FB21
:102D000010402D4F343B92B237F81000009098B22B
:102D100012230221FEF7F8F9B4FBF5F005FB104091
:102D2000641C37F810503580A4B20A2000F03EFA37
:102D300002E03288FFF722FBBBF1010F9BD14FF677
:102D4000FF70FEF733F9FFF707F8FFF7CBFC0EA093
:102D5000FDF79CFCCDF800A0B9F800004F461838EC
:102D600080B212A310220021FEF724FC35800095CA
:102D700038881223A0F11E018AB2343880B20221B1
:102D8000FEF7C2F977E70000B2E2CAD4393A546FCD
:102D9000756368B2E2CAD428B0B44B455930BCFC64
:102DA000D0A3D7BC29202000BC0A002052535400D5
:102DB00058000020600000200000002070B5094C81
:102DC00040F225552946204600F0C9F8002808D0D1
:102DD000204600F051F929462046BDE8704000F039
:102DE000A7B870BD001001402DE9F041204C40F221
:102DF00025552946204600F0B2F8002836D0204656
:102E000000F03AF91B4FC1B238681B4E1B4B30B172
:102E10001A681B481044521C1A60017004E0194AD9
:102E200030681154401C30603F68174A012017B9C0
:102E30007D2900D110601F684FF4007C674502D2E5
:102E40003668664502D31060002018600F4E304689
:102E500000F016F98021304600F07AF80028F9D009
:102E600029462046BDE8F04100F062B8BDE8F08197
:102E7000004400404C0000203C0000205000002096
:102E8000BC080020BC0400205400002000100140B9
:102E90002DE9F0411E4C40F225552946204600F010
:102EA0005EF8002832D0204600F0E6F8194FC1B293
:102EB0003868194B194E28B1194A18681154401C2A
:102EC000186005E0326817481044521C32600170E7
:102ED0003F68154A012017B17D2900D1106036687E
:102EE000B6F5007F02D31060002018600F4E304608
:102EF00000F0C6F88021304600F02AF80028F9D00A
:102F000029462046BDE8F04100F012B8BDE8F08146
:102F100000480040440000203C0000204000002009
:102F2000BC040020BC060020480000200010014026
:102F30000A0A01219140C943018070470029818913
:102F400002D041F4005101E021F400518181704729
:102F50000246002012880A4200D00120704770B556
:102F600001F01F0501260024C1F3421306FA05F201
:102F7000012B0FD0022B0FD0838A4FEA112100883A
:102F8000134206FA01F600EA060001D000B101245E
:102F9000204670BD8389F0E7038AEEE710B5C1F3E0
:102FA000421301F01F040121A140012B07D0022B85
:102FB00007D01430002A026805D00A4304E00C3020
:102FC000F8E71030F6E78A43026010BD7FB504468B
:102FD000008A0D46C98820F4405001432182A0890F
:102FE00041F20C618843A9882A8911436A89024306
:102FF0001143A181A08A20F44071A8890843A082CE
:103000006846FEF713FC1A48844202D019488442ED
:1030100001D1039800E00298A189090400EBC001E6
:1030200001EB0010296801D5490000E08900B0FBE0
:10303000F1F06422B0FBF2F109010B096FF0180501
:103040006B4300EB8300A3891D044FF0320306D5C8
:1030500003EBC000B0FBF2F000F0070005E003EB6B
:103060000010B0FBF2F000F00F00084320817FBD9C
:1030700000100140001401408088C0F30800704730
:10308000C1F308018180704700B52DED048BB0EECF
:10309000409AF0EE609A83B051EC190B00F070FE8C
:1030A00041EC180B18EE100A18EE901A8DED008BFB
:1030B000002818BF0120084320F00040C0F17F60C5
:1030C00000F1E040C00F14D019EE101A19EE900A6A
:1030D0008DED009B002918BF0121084320F000401E
:1030E000C0F17F6000F1E040C00F04BF0120FDF798
:1030F000C7F9B0EE480A03B0F0EE680ABDEC048BE5
:1031000000BD2DE9F05F15461C46DDF828B00E46DF
:10311000074601EB040800EB050A1FFA88F11FFAC5
:103120008AF05A46FDF7EEFE1FFA88F1A7EB050874
:103130001FFA88F05A46FDF7E5FEA6EB04091FFAD0
:1031400089F11FFA8AF05A46FDF7DCFE1FFA89F171
:103150001FFA88F05A46FDF7D5FE06EB050907EB86
:1031600004081FFA89F11FFA88F05A46FDF7CAFED3
:103170003C1B1FFA89F1A0B25A46FDF7C3FE751B2E
:10318000A9B21FFA88F05A46FDF7BCFEA9B2A0B258
:103190005A46BDE8F05FFDF7B5BE30380A2801D2C7
:1031A00001207047002070477047000070B50B4940
:1031B00000244FF0E0224FF47A7505260B6808E0F2
:1031C000B3FBF5F1491E5161946116611169C903A0
:1031D000FCD5401E1461F3D270BD000098000020A1
:1031E00010B54FF0E02100230B61084A084C12682B
:1031F000B2FBF4F24243521E4A618B610520086122
:103200000869C003FCD50B6110BD000098000020C8
:1032100040420F0003490A885206FCD5C2B28A8098
:1032200070470000001001402DE9F84F89461E4606
:10323000904682460024714203220A9802EB41051F
:10324000C8B930E0274608E03B462246494650468A
:10325000CDF80080FFF755FF7F1CB742F4DD002D4D
:1032600003DA05EB8405AD1D04E0A01B05EB80052A
:103270000A35761E641CB442E4DDBDE8F88F33469F
:10328000224649465046CDF80080FFF73AFF002D10
:1032900003DA05EB8405AD1D04E0A01B05EB8005FA
:1032A0000A35761E641CB442E9DDE6E72DE9F05FDD
:1032B00000244FF47A76364D09E00A20FFF790FF9C
:1032C000641CB44203D94FF0FF30BDE8F09FD5F83D
:1032D00008020028F1D000244FF4167608E00A20F6
:1032E000FFF77EFF641CB44202D96FF00100ECE7E7
:1032F000D5F808020028F2D1DFF898A00027A846E8
:10330000002635464FF4487B4FF00109002408E0C1
:103310000A20FFF765FF641C462C02D96FF00200FB
:10332000D3E7D8F808020028F2D05846FFF758FF34
:10333000D8F8080290B109FA05F03043C6B200246B
:1033400008E00A20FFF74CFF641C642C02D96FF0E0
:103350000300BAE7D8F808020028F2D16D1C082D46
:10336000D4DB0AF807607F1C5046042FC8DB0178C5
:1033700042781144FF2905D181789AF80300084466
:10338000FF2802D06FF004009FE701209DE70000B6
:1033900000004242240000202DE9F0412E4C2F4F26
:1033A0002F4D012608B1A67001E0A078A0B1102130
:1033B0002846FDF73FFCB0B108212846FDF73AFC4E
:1033C00088B104212846FDF735FC60B1012138465B
:1033D000FDF730FC012806D010212846FDF72AFC15
:1033E000012824D035E00A20FFF7E0FE0020A0707D
:1033F00010212846FDF71EFC80B108212846FDF764
:1034000019FC70B104212846FDF714FC58B10121C4
:103410003846FDF70FFC012807D01AE00120BDE86F
:10342000F0810220FBE70320F9E70420F7E70821F9
:103430002846FDF7FFFB01280BD104212846FDF7A4
:10344000F9FB012805D101213846FDF7F3FB00B94E
:10345000A6700020E3E700001C00002000000240EE
:103460000010024070B586B001211020FEF7C6F9A9
:1034700001218803FEF7CEF9002618258DF810608B
:10348000012403958DF8134003A91848FDF786FB26
:1034900003210420FEF770FA04210846FEF76CFAB7
:1034A0008DF80A408DF808600C208DF80900019510
:1034B00001A8FDF7ABF909208DF800008DF8034055
:1034C0008DF801408DF802406846FEF715F90A2094
:1034D0008DF800008DF803408DF801408DF8024012
:1034E0006846FEF709F906B070BD00000010024002
:1034F0001CB501212020FEF781F901248DF804403C
:1035000000208DF806004FF4C06000908DF8074051
:1035100002208DF8050069460448FDF73FFB04488A
:10352000C0F8A442C0F8A8421CBD0000001402402C
:10353000008042424FF4A060FEF710F94FF4E130F2
:1035400000F04EF9FDF724FE19A0FCF791FE00F003
:103550008BF81DA0FCF78CFEFFF7F4F91EA0FCF71A
:1035600087FEFFF763FA20A0FCF782FEFFF784F9DD
:1035700021A0FCF77DFEFFF7CBFA23A0FCF778FE35
:10358000FDF77CF925A0FCF773FEFDF70BF829A0E9
:10359000FCF76EFEFEF7ECF82CA0FCF769FEFEF7D8
:1035A0008DF92DA0FCF764FEFFF738FBCFE7000094
:1035B0007573617274315F696E69745F737563638B
:1035C000657373210D0A00006D61696E5F74657328
:1035D00074210D0A00000000546573745F436F6C22
:1035E0006F72210D0A000000546573745F46696CA8
:1035F0006C526563210D0A00546573745F436972F0
:10360000636C65210D0A0000546573745F54726920
:10361000616E676C65210D0A00000000456E676CE5
:103620006973685F466F6E745F74657374210D0A09
:10363000000000004368696E6573655F466F6E74D5
:103640005F74657374210D0A000000005069635FA8
:1036500074657374210D0A00526F746174655F5450
:10366000657374210D0A0000FEB51AA0FDF70EF86F
:10367000012510241DA08DE831001F23DE023246F3
:103680001E210020FDF770FC14A08DE831001F23DF
:1036900032463C210020FDF767FC17A08DE8310081
:1036A0001F234FF4FC625A210020FDF75DFC18A097
:1036B0008DE831001F231A4678210020FDF754FCC5
:1036C00040F2DC542046FFF771FD2046BDE8FE4085
:1036D000FFF76CBDC8ABB6AFB5E7D7D3D7DBBACF72
:1036E000B2E2CAD4B3CCD0F200000000C8ABB6AF8F
:1036F000B5E7D7D300000000342E302220535437D2
:103700003739365320333230583438300000000017
:103710007869616F46656E674051447465636820DF
:10372000323031392D30392D323500000346012039
:1037300000E05843491EC9B2FBD270477CB5012155
:103740001020FEF75BF801208DF8040000248DF8AE
:1037500006408DF807004FF4406103200A4D0091A8
:103760008DF8050069462846FDF718FAE914284641
:10377000FDF767FA4FF4005100918DF80440694657
:103780002846FDF70BFA7CBD001002402DE9F047FA
:1037900000250724114F8246A946012606FA04F89F
:1037A00018EA0A0F02D0C7F8946201E0C7F89492B1
:1037B000C7F88C920120FFF713FDC7F88C62012037
:1037C000FFF70EFDD7F8100210B148EA0500C5B2A8
:1037D000641EE3D52846BDE8F08700000080404223
:1037E0002DE9F041064601210846FEF707F80121C0
:1037F0001020FEF70FF81D4F072209213846FDF76C
:1038000009FA07220A213846FDF704FA18484FF44E
:10381000C0610024016002210171417184710125A0
:10382000C57101463846FDF7B9F912490C200E6002
:103830008C80CC800C818C810F4E48813046FFF704
:10384000C5FB01213046FFF779FB012240F22551EB
:103850003046FFF7A3FB06482521001F0170457085
:103860008470C570BDE8F041FDF746BF000002401E
:1038700010000020AC0000200010014070B504468C
:1038800000F0B2F80E4D0020C5F8B802202005F572
:103890002E75FFF77BFFC4F30740FFF777FFC4F3F4
:1038A0000720FFF773FFE0B2FFF770FF01202860E9
:1038B00000F036F8C007FBD1BDE8704000F094B8C6
:1038C000008040422DE9F04115460C46074600F0C5
:1038D0008BF8124E0020C6F8B8020220FFF756FF00
:1038E000C7F30740FFF752FFC7F30720FFF74EFF6C
:1038F000F8B2FFF74BFF03E02078FFF747FF641CA7
:103900006D1EF9D20120C6F8B80200F009F8C00710
:10391000FBD1BDE8F04100F067B8000000804042F4
:1039200010B5074C0020C4F8B802052004F52E7429
:10393000FFF72CFFFF20FFF729FF0121216010BDB9
:10394000008040422DE9F041104E07460020154608
:103950000C46C6F8B8020320FFF718FFC7F307406C
:10396000FFF714FFC7F30720FFF710FFF8B2FFF7C8
:103970000DFF04E0FF20FFF709FF04F8010B6D1EA7
:10398000F8D20120C6F8B802BDE8F08100804042BC
:103990007CB501210220FDF731FF01208DF80400E4
:1039A00000248DF806408DF8070044F2280103201A
:1039B0000C4D00918DF8050069462846FDF7EEF89C
:1039C00008212846FDF73DF94FF480412846FDF7D0
:1039D00038F9102100918DF8044069462846FDF71A
:1039E000DDF87CBD0004024010B5064C0020C4F890
:1039F000B802062004F52E74FFF7C8FE01202060EF
:103A000010BD000000804042491058BFC1F1404144
:103A10005B1058BFC3F140438B42EFF30080704707
:103A20004FEA1153A3F58063D3F11E03A8BFD3F16E
:103A3000200C08DB4FF0004242EAC12252EA505209
:103A400032FA03F0704709420BD4102BC4BF002098
:103A5000704703F5787CBCF1FF3F05D04FF0FF3095
:103A600070474FF00000704770B500F0FFF800BFDE
:103A70004992248000207047F0E7B0FA80F310FAF2
:103A800003F10AD0C3F11D0303F580634FEA4150EF
:103A90004FEA035202EBD12170474FF0000070470C
:103AA00051EA030C17D41CF5801F58BFBCF5801FCA
:103AB00000F10680994218BF704708BF90427047D6
:103AC00007D711F5801F58BF13F5801F19D49942ED
:103AD0007047894270471CF5801F08D5BCF5801FD0
:103AE000F7D58B4218BF704708BF824270474FF42A
:103AF000001C1CEB410F38BF1CEB430F01D28B4263
:103B0000704770B500F0B2F8922449004FF00051B0
:103B10004FF08053FFF778BFDFF848C170B51CEA5B
:103B2000111E1EBF1CEA13159EEA0C0F95EA0C0F1E
:103B300000F06F8081EA030423EA4C134EEAD47E3E
:103B400021EA4C1141F4801143F48013AE44A1FBEF
:103B5000024CA0FB0365AEF17F7E361955EB0C05D8
:103B6000A1FB034C4CF10003A0FB021C16EB0C065E
:103B7000654153F10003094218BF46F0010613F4F2
:103B8000007F0BD14FEA03314FEA0530340341EA9D
:103B9000155140EA16506FF003020AE04FEAC321C4
:103BA0004FEAC520F40241EA555140EA56506FF001
:103BB000020202EB2E4201EB025585EACE710AD0D9
:103BC0005FEA440C18BF24F0004450F1000041F1BA
:103BD000000120EAD47040F2FE7C624500D270BD44
:103BE000A84214BF4FF080444FF04044002E08BF5D
:103BF0000024BEF1806FA8BFA1F1C041BDE87040B4
:103C000080F282804FF0000001F1C04101F00041DC
:103C100070479EEA0C0F0CEA131518BF95EA0C0FBB
:103C200006D04FF0000081EA030E0EF0004170BD97
:103C300000F01CF88900013E00F007B800F009B858
:103C40004FEA430C5FEA5C5C08D081EA030100F0B4
:103C50005BB84FEA410C5FEA5C5CF6D14FF00000C4
:103C6000014970470000FF070000F87F0EF1020EC7
:103C70002EF0030E5EF8046B364205D4012A43EBA6
:103C8000030515F5001F12D8012841EB010C1CF5A6
:103C9000001F0CD80ED14FEAD17C15F5001F0CEB9C
:103CA0004C0C0CF1020C08BF4CEBD37C04E04FF041
:103CB000080C01E04FEAD37C0CEB4C0526FA05F624
:103CC00006F00706B6F1040C06D20EEB860CBDE832
:103CD00070404CF0010C6047DFE80CF0090B020269
:103CE0004FF000414FF00000A1F5002170BD1946D2
:103CF0001046012851EB010418BFD4F5001484BF0D
:103D0000002001F0004170BD0808A0F500114FEA45
:103D10003101704753EA010C17D41CF5801F58BFBE
:103D2000BCF5801F00F106808B4218BF704708BFAA
:103D30008242704707D713F5801F58BF11F5801FC7
:103D400019D48B4270479B4270471CF5801F08D5E1
:103D5000BCF5801FF7D5994218BF704708BF904245
:103D600070474FF4001C1CEB430F38BF1CEB410F96
:103D700001D2994270470FB40CBC03BCFFF7C1BE1F
:103D80002DE9F04101F5801CBCF5001FC0F2A980AF
:103D90004FEA115C21EA0C510CF1FD0C41F4801149
:103DA0005FEA5C0C0CF5C07C01D34000494130A4B3
:103DB000890241EA905187028E0E0A0CA45D04FB31
:103DC00004F602FB06F6C6F14046A4FB0662F60DB9
:103DD00046EA422606FB06F4A4FB01235242C3F145
:103DE000404338BF5B1EA6FB02420024E6FB0324CF
:103DF000D20B42EA4446A6FB0623A1FB02E2A3FB48
:103E000007E4E3FB61426442C2F1404E38BFAEF1C9
:103E1000010EA6FB04234FF00002E6FB0E32A2FBCC
:103E200003463400E2FB6264A1FB06E6A4FB07E85C
:103E3000E4FB61687642C8F1405838BFA8F1010838
:103E4000A2FB06E4A3FB08E5E2FB6854A1FB05E640
:103E5000A7FB04E8E1FB648618F1200556F1000693
:103E6000A809A8F11B08B10908F03F08B8F10A0F2A
:103E700040EA86601CD901EB0C51BDE8F08100BF1F
:103E8000FCF5EEE8E2DDD8D3CFCBC7C3C0BDB9B6F1
:103E9000B4B1AEACA9A7A5A3A19F9D9B9A989695F6
:103EA0009392908F8D8C8B8988878685848382817D
:103EB000A0FB006800FB01F208EB4208B8EB872882
:103EC00007D5341858EB0104D5D5401C51F1000139
:103ED000D1E7341A78EB0104CDD4401E71F1000112
:103EE000C9E75FEA4C0C5FEA9C5C0DD105D34FF04B
:103EF000000001F00041BDE8F081BDE8F04170B57F
:103F0000FFF7B4FE6DDBFFBEBDE8F0414FF00000EF
:103F1000004970470000F87F43004FEAD30C4FEA96
:103F20003C0C43401FBF40070CF1605113F0FE4FA3
:103F300070471CF0006F03D100200CF00041704767
:103F40000CF0004343EA507010B540EACC0000F09A
:103F50000EF800BF000000924FEA0001FFF7D4BE48
:103F60004FF000414FF00000A1F5002170470EF125
:103F7000020E2EF0030E5EF8044B244204D44FEAE6
:103F80004102B2F17F4F11D84FEA4003B3F17F4FA6
:103F90000CD80ED14FEAD07CB2F17F4F0CEB4C0C19
:103FA0000CF1020C08BF4CEBD17C04E04FF0080C84
:103FB00001E04FEAD17C0CEB4C0324FA03F404F04B
:103FC0000704B4F1040C06D20EEB840CBDE81040DB
:103FD0004CF0010C6047DFE80CF0070802024FF0DC
:103FE0000040A0F5800010BD0846420018BFD2F185
:103FF000807288BF00F0004010BD4FF04070E1EECD
:10400000100A7047000000000000000000000000DF
:1040100000000404040404040004000000140A0A5C
:104020000000000000000000000014143F140A3FCC
:104030000A0A000000041E1505060C14150F0400E2
:10404000000012150D0A142C2A1200000000040AA8
:104050000A1E1515093600000002020100000000CA
:1040600000000000002010080808080808102000C0
:104070000002040808080808080402000000000400
:10408000150E0E150400000000000404041F0404B3
:104090000400000000000000000000000002020117
:1040A00000000000001F00000000000000000000F1
:1040B00000000000000200000010080808040402CC
:1040C0000202010000000E1111111111110E000069
:1040D0000000040604040404040E000000000E1195
:1040E00011080402011F000000000E11100C101036
:1040F000110E00000000080C0A0A091E0818000032
:1041000000001F01010F1010110E000000000E0929
:10411000010F1111110E000000001F090804040412
:104120000404000000000E11110E1111110E000008
:1041300000000E1111111E10120E000000000000F0
:104140000400000000040000000000000004000063
:1041500000040400002010080402040810200000DD
:10416000000000001F00001F000000000002040803
:10417000102010080402000000000E1111080404B1
:104180000004000000000E111915151D011E00008D
:10419000000004040C0A0A1E1233000000000F1273
:1041A000120E1212120F000000001E110101010177
:1041B000110E000000000F1212121212120F000056
:1041C00000001F120A0E0A02121F000000001F1238
:1041D0000A0E0A020207000000001C120101391138
:1041E000120C000000003312121E121212330000D3
:1041F00000001F0404040404041F000000003E0823
:104200000808080808090700000037120A060A0A09
:10421000123700000000070202020202223F0000E3
:1042200000001B1B1B1B15151515000000003B1281
:1042300016161A1A1217000000000E111111111192
:10424000110E000000000F12120E02020207000001
:1042500000000E1111111117190E180000000F1295
:10426000120E0A121237000000001E11010608107B
:10427000110F000000001F1504040404040E0000C8
:104280000000331212121212120C0000000033123E
:10429000120A0A0C0404000000001515150E0A0A83
:1042A0000A0A000000001B0A0A04040A0A1B000094
:1042B00000001B0A0A040404040E000000001F0989
:1042C00008040402121F0000001C04040404040477
:1042D00004041C0000020202040408080810000084
:1042E000000E08080808080808080E0000040A0064
:1042F00000000000000000000000000000000000BE
:104300000000003F0004000000000000000000006A
:1043100000000000000C121C123C00000000030210
:10432000020E1212120E000000000000001C120209
:10433000021C000000001810101C1212123C000099
:1043400000000000000C121E021C000000003804D7
:10435000041E0404041E000000000000003C120CB7
:10436000021E221C00000302020E1212123700006D
:104370000000040000060404040E00000000080011
:10438000000C08080808080700000302023A0A0E99
:10439000123700000000070404040404041F000096
:1043A00000000000000F15151515000000000000AA
:1043B000000F12121237000000000000000C121251
:1043C000120C000000000000000F1212120E020773
:1043D00000000000001C1212121C10380000000027
:1043E000001B06020207000000000000001E020C75
:1043F000101E000000000004040E04040418000055
:1044000000000000001B1212123C0000000000001F
:104410000037120A0C040000000000000015150E01
:104420000A0A000000000000001B0A040A1B00002A
:10443000000000000037120A0C0404030000000012
:10444000001E0804041E00000018080808040808DC
:1044500008081800080808080808080808080808D4
:1044600000060404040804040404060002251800DD
:10447000000000000000000000000000000000003C
:104480000000000000000000000000080808080804
:10449000080800001818000000486C2412000000F2
:1044A00000000000000000000000002424247F120F
:1044B00012127F12121200000000081C2A2A0A0C95
:1044C0001828282A2A1C080800000022251515157E
:1044D0002A585454542200000000000C1212120AF0
:1044E00076252911916E00000006060403000000E5
:1044F0000000000000000000004020101008080824
:1045000008080810102040000002040808101010CD
:1045100010101008080402000000000008086B1CBE
:104520001C6B0808000000000000000008080808D4
:104530007F080808080000000000000000000000DC
:104540000000000006060403000000000000000058
:10455000FE0000000000000000000000000000005D
:1045600000000000060600000000804040202010EF
:10457000100808040402020000000018244242420D
:104580004242424224180000000000080E080808B9
:1045900008080808083E00000000003C4242422093
:1045A00020100804427E00000000003C4242201817
:1045B00020404042221C000000000020302824241B
:1045C00022227E20207800000000007E0202021AD3
:1045D00026404042221C0000000000382402021A3B
:1045E00026424242241800000000007E22221010C1
:1045F00008080808080800000000003C4242422465
:1046000018244242423C000000000018244242426A
:1046100064584040241C00000000000000001818EE
:104620000000000018180000000000000000000852
:1046300000000000000808040000004020100804EA
:1046400002040810204000000000000000007F006D
:1046500000007F000000000000000002040810209D
:1046600040201008040200000000003C4242464086
:1046700020101000181800000000001C225A555588
:1046800055552D42221C0000000000080818141483
:10469000243C224242E700000000001F2222221E8A
:1046A00022424242221F00000000007C42420101DF
:1046B00001010142221C00000000001F2242424270
:1046C00042424242221F00000000003F4212121EDE
:1046D00012120242423F00000000003F4212121E2E
:1046E00012120202020700000000003C2222010117
:1046F00001712122221C0000000000E742424242D8
:104700007E42424242E700000000003E08080808DE
:1047100008080808083E00000000007C1010101077
:10472000101010101010110F0000007722120A0E46
:104730000A12122222770000000000070202020281
:1047400002020202427F0000000000773636363651
:104750002A2A2A2A2A6B0000000000E346464A4A19
:1047600052525262624700000000001C2241414147
:1047700041414141221C00000000003F42424242B0
:104780003E020202020700000000001C22414141DB
:1047900041414D53321C60000000003F4242423E06
:1047A0001212222242C700000000007C4242020492
:1047B00018204042423E00000000007F49080808DF
:1047C00008080808081C0000000000E742424242B6
:1047D00042424242423C0000000000E742422224A2
:1047E00024141418080800000000006B49494949C6
:1047F0005555362222220000000000E742242418EA
:104800001818242442E70000000000772222141424
:1048100008080808081C00000000007E2120101075
:1048200008040442423F000000780808080808080D
:1048300008080808080878000000020204040808B4
:104840000810102020204040001E101010101010E2
:104850001010101010101E0000384400000000005E
:104860000000000000000000000000000000000048
:1048700000000000000000FF00060800000000002B
:104880000000000000000000000000000000003CEC
:104890004278444242FC0000000000030202021A77
:1048A00026424242261A00000000000000000038A4
:1048B000440202024438000000000060404040789A
:1048C0004442424264D80000000000000000003C66
:1048D000427E0202423C0000000000F08808087E90
:1048E00008080808083E0000000000000000007CE6
:1048F00022221C023C42423C000000030202023A17
:104900004642424242E700000000000C0C00000E4C
:1049100008080808083E0000000000303000003899
:10492000202020202020221E00000003020202720C
:10493000120A1612227700000000000E080808086C
:1049400008080808083E0000000000000000007F82
:104950009292929292B70000000000000000003B8B
:104960004642424242E70000000000000000003CD6
:1049700042424242423C0000000000000000001B96
:1049800026424242221E020700000000000000787A
:1049900044424242447840E00000000000000077BA
:1049A0004C040404041F0000000000000000007C10
:1049B00042023C40423E0000000000000008083E69
:1049C000080808080830000000000000000000632C
:1049D0004242424262DC000000000000000000E7AA
:1049E000422424140808000000000000000000EB2E
:1049F00049495555222200000000000000000076C1
:104A000024181818246E000000000000000000E7C1
:104A10004224241418080807000000000000007E4B
:104A200022100808447E000000C020202020201012
:104A3000202020202020C000101010101010101076
:104A400010101010101010100006080808080810A8
:104A500008080808080806000C32C2000000000020
:104A60000000000000000000C9EE000027FC140454
:104A700014A4811042084040104017FC2040E0E0A0
:104A8000215022482C4620400040DBDA110411243A
:104A9000112411241124FD24112411241124112482
:104AA00011241D24E124422402040404CAD002007B
:104AB000010000007FFC0100010001003FF8210817
:104AC0002108210821082128211001000100C8AB7C
:104AD00000000000018002400430180860061FF941
:104AE0000100010001003FF80100010001007FFE0C
:104AF000B6AF0000000000203E20007C0022002213
:104B00007F221022102212221222224223423D82B0
:104B1000009CB5E70000010001001FF0610C41049A
:104B200041047FFC4104410441047FFC0100010277
:104B3000010201FCD7D3000000003FF80010006024
:104B40000080010000807FFE004000400020002027
:104B5000002018400780BCBC10201020102013FE3D
:104B6000FC201020102015FC18843088D0481050EC
:104B70001020105051882606CAF5010001200110AE
:104B800001107FFC03800540054009201110210819
:104B900041048102010001000100D3D002000200A3
:104BA000FFFE040004000FF0081018102FF048104A
:104BB00088100FF00810081008500820CFDE000001
:104BC0007BF84A08520853F8620852084BF84A44E6
:104BD0004A486A3052204210428843064200B9AB2C
:104BE0000080048004800840084010202010420803
:104BF000820604000440082010203FF0101000003E
:104C0000CBBE00003FF8000800087FE8000800085D
:104C10001F8810881088108810881F881088002826
:104C20000010BBB600800080FC8004FC050449082D
:104C30002A401440104028A024A0451081100208EA
:104C400004040802D3AD00002080133C1224022487
:104C50000224F2241224122412B413281220102049
:104C6000282047FE0000C4FA0900090011FC3204A4
:104C700054489950114812441444114010800200C5
:104C80005104511290120FF0B4BF00000020102008
:104C900013FE202026244A247A241224222423FCD2
:104CA0007C20002204227822003CC9AB00000000D6
:104CB00004000FF0102020207FFC2084208420841A
:104CC00020843FF82000200220021FFECCEE0000CE
:104CD0000000204023FE204079FC220423FC220413
:104CE00023FC220423FC3A0465FA01980204B3E48D
:104CF0000000010001007FFE0220041004080804E7
:104D00003FFC044204400440044208421042607EDA
:104D1000BED800000000207E3E804880488048FECB
:104D200048827F8208820C8214FA128422802180B9
:104D300040FED0CE000000007F842208223022C036
:104D4000220222047FC8223022C222022204220828
:104D500022304040BBAD000000007FFE00000FF09D
:104D600011101110111051125FF251125112511203
:104D70004FF240027FFCD4B2000000007FFE47E209
:104D80004812481247E24FF250125012511251127B
:104D900042924472580A3FFCCDBC000000003FFE26
:104DA000440247F24C225362408243625E1A4182BF
:104DB0004062430240C240223FFCC6AC00000040BB
:104DC0002040204020403FFE2000200020003FE007
:104DD000201020102010201040104010CFD40000D0
:104DE00000003FFC200420043FFC200420041FF8A6
:104DF00024441448144814480C5004407FFECABE92
:104E0000000000003FFC0000000000007FFE00806A
:104E100008900888108810842084208240820780AF
:104E2000B2CB0000002008207FFE002000783F88E1
:104E30001108089009207FFE018003400D30310CDD
:104E40004002B5A500000010081004203FF821041E
:104E500021043FFC210421043FF801007FFE0100F2
:104E600001000100D6D000000100010001003FFC5C
:104E70002104210421042104210421043FFC010018
:104E8000010001000100D3A20000000008207FFE05
:104E90000820092001003FF82108210821081FF4FB
:104EA000014002200C10700ECEC400000100010071
:104EB00000803F7C081008100410042002200240EB
:104EC0000180018002601C18E006D7DB00000000B2
:104ED000102011FE2202220249FC5800300013FE6D
:104EE0002528792401240D24722202A2BACF0000C1
:104EF0000000018002400430180860061FF800001E
:104F00001FF8200420042004200420041FF8C1C13D
:104F10000000010001007FFE00003FF820083FF87C
:104F20003FF8400647C24824082008221022603E6D
:104F3000B6C80000000000803FFE44105FFC441033
:104F4000441043F040005FF84408423041C04360E1
:104F5000BC1EB2E20000000067C2145205520552A6
:104F6000C55225520552055215521752228222422D
:104F70004442483ECAD4000000002014101417FE1A
:104F800000120010601013F0109010901090149206
:104F900014EA1F0A0006B3CC0000000019FE7202DA
:104FA000120212027DFC18001BFE3420502053FE1A
:104FB00010201020102013FED0F20000000000800E
:104FC0003FFE400047FC4208413040C05FFE404287
:104FD00040424044404840404440B5F70000000093
:104FE00023FE122202FA0222E22212FE1272128A18
:104FF000128A128A16BA1A421202040EB9E200008C
:105000000100010411080908091009207FFE04406D
:10501000044004400440084208421042607CB0E66C
:105020000000000048FE4900490049007EFE418220
:105030004144794445284528451045284644038283
:10504000C8A800001000100013FC7D04110419040E
:105050001884348850485050102010501088130481
:105060001402CBF9000000003F7C204020403E406D
:10507000227E2244224422443E8420842084408490
:1050800041044204C6C100003FF8200820083FF850
:10509000241022202FF8222022203FFC2220422010
:1050A000442084200820C4BB04407FFC04401FF03F
:1050B00010101FF010101FF00400FFFE11103FF839
:1050C000D116115011200100D0FD2080108010FE5B
:1050D0000100FE0021FC20243C2424A024A024BCA8
:1050E00024A024A04560553E8A00D7AA2020202075
:1050F0002020FDFC4020504093FEFC40108011FC1D
:105100001C04F0885050102010101010BFAA00008E
:105110007FFC08200820082008200820FFFE082027
:105120000820082008201020102020204020D4B47F
:10513000000027FE1420144085FC450445FC15049E
:1051400015FC2524E42024A829242A2230A000408C
:10515000D2BA0080204017FE11208120423C4244F8
:10516000166412942348E2482230222022502288DA
:105170000306BEA70FE0082008200FE00820082043
:105180000FE000007EFC428442847EFC4284428424
:105190007EFC4284CDF800007FFC400440044214B1
:1051A00052944A54442444244A544A545294610424
:1051B000400440144008D5BE1020082008207E205E
:1051C000003E04204420442025FC290429040F0427
:1051D000F104410401FC0104B0B41040102010207F
:1051E00013FEFA02144410401BFE3088D0881108C8
:1051F00010D01020105050882304BCFC2010201028
:105200003B7C211441FE7A14A27C2710F97C2510E6
:1052100025FE22102A10350028FE0000D0A31040E1
:105220001020102011FEFC00108831043A0254882E
:105230005088905010501020105010881306D7BC82
:1052400001404120212023FE022016201BFC1220B9
:10525000222023FCE2202220222023FE2200020022
:10526000B4A520202020782049FC91247D245524B9
:1052700055247DFC552454207C28542457FE450297
:105280008C00C3FE1110111017FC1110FC0013F854
:10529000120817F81A0833F8D04017FC10A01110A4
:1052A00052082406C9EE00000000000010000008AB
:1052B00000080C7FFC04401001C8A00218604230B6
:1052C0001832231812C30014030004030C047FF0E7
:1052D000080F80080B4078136018332018631818E3
:1052E000831C190308180300000300000000DBDA28
:1052F00000000000000004100C04180C04108C04C2
:10530000108C04108C04108C04D08C3F108C041072
:105310008C04108C04108C04108C04108C04108CE1
:1053200005F08C0E208C78208C20408C00808C0125
:10533000000C02000C000000CAD0000000000000B9
:1053400000300000180000180800001C1FFFE000DB
:10535000180000182007FFF0041820041820041873
:1053600020041820041820041820041820041820F1
:105370000418200418E00418400018000018000069
:105380000000D6D000000000000000000000000077
:105390000018000018000018000018003FFFFE3041
:1053A00018063018063018063018063018063FFF69
:1053B000FE30180600180000180000180000180041
:1053C000001800000000000000000000CEC4000033
:1053D00000000000000000003800001C0000060073
:1053E000FFFFFF060030060030030060030060018D
:1053F00080C000C18000E300003600001C00007780
:105400000003C1E01E003C60000700000000000037
:10541000000000000000B2E20000000000000000F8
:105420000000000040000321FF3339833311833330
:10543000019B33C19B33719B33199B33019B330118
:105440009B33119B3319B333303033306C0330C688
:10545000036383032E01BE00000000000000000073
:10546000CAD400000000000000000000000040005E
:10547000D83000CE1800C21C00C001FFFF0000C0E1
:10548000F800C01800C019FFC0181840181860199B
:1054900018601B18611E18311C1FB139F01910005B
:1054A0000F000000000000000000D7D60000000040
:1054B00000060000000300000000C0000001C0C0A2
:1054C000000107C00001FF00021FFE0007F01C00E2
:1054D00007C070000F00E0000E03F0001C0FF0008A
:1054E0003C0F70003C00E0001800C0000000C0004D
:1054F0000000C00000006000000020000000370035
:105500000001FF00007FF80007F830001F80300026
:105510000080300000C03000006060000018E00033
:10552000000FC0000006000000000000CCE50000F5
:10553000000000000000000000C0000000E00020AB
:1055400001B800703FF80061FFC000C3030001C64E
:105550000600038C060003080C0006080C000E1859
:10556000183F1E101BF31F903F0700803C1C01904A
:10557000707C019060FE01A0C3F801A00FD803A0C9
:105580000818036000180340001803C000180380C7
:1055900000180300001800000018000000100000B0
:1055A0000030000000300000000000000000B2E207
:1055B00000000000000000000000000000000000EB
:1055C000020C1008071FF80403BFF00201BC3003EF
:1055D00003EC3003015C600300D8600300D8600373
:1055E0008098620361B8430771B1430631324306C4
:1055F0003376C3063A64C7063EECC0063E78C00662
:105600003C3040067C70000678E060067BFFF006C8
:10561000F7C00006E4000006400000060000000697
:105620000000007C00008FF000007C000000000003
:10563000CAD40000000000000000000000000000CC
:105640003F0000007F8000000180000000C00000DB
:1056500000C0000000CE038000CFFFC000DD41800D
:105660000FFE0007FFFC000C00F000180FC03E19F1
:10567000FF40F311BC6083307FE003B1FE200333B1
:10568000802003700030036000100360001807C022
:10569000000C07C0000407800002010000030000A6
:1056A00000010000000000000000000000000000F9
:1056B00000000000FFFFFFFFFFFFFFFFFFFFFFFFF6
:1056C000FFFFFFFFFFFFFFFFFFFFFFFFFFFFFFFFEA
:1056D000FFFFBEF7FFFFDEFF38C6928C8E6B6E6B4E
:1056E000107C96AD3CE7FFFFFFFFFFFFFFFFFFFFD2
:1056F000FFFFFFFFFFFFFFFFFFFFFFFFFFFFFFFFBA
:10570000FFFFFFFFFFFFFFFFFFFFFFFFFFFFFFFFA9
:10571000FFFFFFFFFFFFFFFFFFFFFFFFFFFFFFFF99
:10572000FFFF5DEF159D4F636C420A3288294619D1
:1057300025194521E8318E6B38C6FFFFFFFFFFFFBB
:10574000FFFFFFFFFFFFFFFFFFFFFFFFFFFFFFFF69
:10575000FFFFFFFFFFFFFFFFFFFFFFFFFFFFFFFF59
:10576000FFFFFFFFFFFFFFFFFFFFFFFFFFFFFFFF49
:1057700036A51053104B51530F4B6C3AE93167214A
:105780002519E410A30862008308CB529AD6FFFFC4
:10579000FFFFFFFFFFFFFFFFFFFFFFFFFFFFFFFF19
:1057A000FFFFFFFFFFFFFFFFFFFFFFFFFFFFFFFF09
:1057B000FFFFFFFFFFFFFFFFFFFFFFFF3CE77063FF
:1057C000B363B87CF56311434D32EA298821261969
:1057D0000519051904110411E4108300A308728C43
:1057E000FFFFFFFFFFFFFFFFFFFFFFFFFFFFFFFFC9
:1057F000FFFFFFFFFFFFFFFFFFFFFFFFFFFFFFFFB9
:10580000FFFFFFFFFFFFFFFFFFFFDBDE4B3AF04232
:10581000356C544BB1322E2AEB21A9216719051999
:10582000041104110411041104110519E4104200BB
:10583000AF73FFFFFFFFFFFFFFFFFFFFFFFFFFFF54
:10584000FFFFFFFFFFFFFFFFFFFFFFFFFFFFFFFF68
:10585000FFFFFFFFFFFFFFFF5DEF09324C32104BF0
:105860008F324F2A2E2ACC198919892147190519F7
:1058700004110411C410C410041104110411E41023
:1058800042003184FFFFFFFFFFFFFFFFFFFFFFFF2D
:10589000FFFFFFFFFFFFFFFFFFFFFFFFFFFFFFFF18
:1058A000FFFFFFFFFFFFFFFFEC5247194C320B2AAF
:1058B000EC21EC210C22915BEE4A06112619041909
:1058C000E410E410A7296621A308051904110411A6
:1058D000E4108200F7BDFFFFFFFFFFFFFFFFFFFFA8
:1058E000FFFFFFFFFFFFFFFFFFFFFFFFFFFFFFFFC8
:1058F000FFFFFFFFFFFF35A583088821882189214D
:10590000AA218A216B42718CFFFF728C83080411DB
:10591000C4082942FBDE5DEFEC5A83080411041130
:1059200004118308E831DFFFFFFFFFFFFFFFFFFFE8
:10593000FFFFFFFFFFFFFFFFFFFFFFFFFFFFFFFF77
:10594000FFFFFFFFBEF7C731C410251926194719FD
:105950004719A8298A52284A55ADFFFFE831A30804
:1059600005194D6B4D6BFFFF7DEF4521C4100411F0
:1059700004110411620076ADFFFFFFFFFFFFFFFF80
:10598000FFFFFFFFFFFFFFFFFFFFFFFFFFFFFFFF27
:10599000FFFFFFFF96B562000411041905110519F8
:1059A000C4088B4AB6B55DEFF7BDFFFF8E6B620092
:1059B0002942AA5A0842FFFFFFFFCC528308041174
:1059C00004110411A308AD52FFFFFFFFFFFFFFFF0B
:1059D000FFFFFFFFFFFFFFFFFFFF1CE7FFFFFFFFD2
:1059E000FFFFFFFF4E636200041104110411E41075
:1059F00062008E63FFFFFFFFFFFFFFFFCF73010019
:105A0000F39C2C6396B5FFFFFFFF2D5B8300041111
:105A100004110411E41067213DEFFFFFFFFFFFFFBA
:105A2000FFFFFFFFF8BDB7B59EEFCB52B394FFFF6A
:105A3000FFFFDFFFE831A308041104110411041172
:105A4000A3084942FFF7FFF7FFFFFFFF6A4A010083
:105A50007284FFFFFFFFFFF7DFEF093AA30804118D
:105A6000041104110411051118BEFFFFFFFFFFFF11
:105A7000FFFFFFFFF07B6200E831C731410035A531
:105A8000FFFF5DEF4621C41004110411041104113D
:105A9000E410A308769DFFF7FFFFB7ADA308A308A6
:105AA000C7319EE7FFF7FFF776A5A308E4100411BE
:105AB000041104110511051135A5FFFFFFFFFFFFBC
:105AC000FFFFFFFFDBDEA7298300C410C410C41052
:105AD0001CE79EEF0511E4100411041104110411D8
